{
  "contractName": "ZombieHelper",
  "abi": [
    {
      "anonymous": false,
      "inputs": [
        {
          "indexed": false,
          "internalType": "uint256",
          "name": "zombieId",
          "type": "uint256"
        },
        {
          "indexed": false,
          "internalType": "uint256",
          "name": "level",
          "type": "uint256"
        }
      ],
      "name": "NewLevel",
      "type": "event"
    },
    {
      "anonymous": false,
      "inputs": [
        {
          "indexed": false,
          "internalType": "uint256",
          "name": "zombieId",
          "type": "uint256"
        },
        {
          "indexed": false,
          "internalType": "string",
          "name": "name",
          "type": "string"
        },
        {
          "indexed": false,
          "internalType": "uint256",
          "name": "dna",
          "type": "uint256"
        }
      ],
      "name": "NewZombie",
      "type": "event"
    },
    {
      "anonymous": false,
      "inputs": [
        {
          "indexed": true,
          "internalType": "address",
          "name": "previousOwner",
          "type": "address"
        },
        {
          "indexed": true,
          "internalType": "address",
          "name": "newOwner",
          "type": "address"
        }
      ],
      "name": "OwnershipTransferred",
      "type": "event"
    },
    {
      "constant": false,
      "inputs": [
        {
          "internalType": "string",
          "name": "_name",
          "type": "string"
        }
      ],
      "name": "createRandomZombie",
      "outputs": [],
      "payable": false,
      "stateMutability": "nonpayable",
      "type": "function"
    },
    {
      "constant": false,
      "inputs": [
        {
          "internalType": "uint256",
          "name": "_zombieId",
          "type": "uint256"
        },
        {
          "internalType": "uint256",
          "name": "_kittyId",
          "type": "uint256"
        }
      ],
      "name": "feedOnKitty",
      "outputs": [],
      "payable": false,
      "stateMutability": "nonpayable",
      "type": "function"
    },
    {
      "constant": true,
      "inputs": [],
      "name": "isOwner",
      "outputs": [
        {
          "internalType": "bool",
          "name": "",
          "type": "bool"
        }
      ],
      "payable": false,
      "stateMutability": "view",
      "type": "function"
    },
    {
      "constant": true,
      "inputs": [],
      "name": "owner",
      "outputs": [
        {
          "internalType": "address",
          "name": "",
          "type": "address"
        }
      ],
      "payable": false,
      "stateMutability": "view",
      "type": "function"
    },
    {
      "constant": false,
      "inputs": [],
      "name": "renounceOwnership",
      "outputs": [],
      "payable": false,
      "stateMutability": "nonpayable",
      "type": "function"
    },
    {
      "constant": false,
      "inputs": [
        {
          "internalType": "address",
          "name": "_address",
          "type": "address"
        }
      ],
      "name": "setKittyContractAddress",
      "outputs": [],
      "payable": false,
      "stateMutability": "nonpayable",
      "type": "function"
    },
    {
      "constant": false,
      "inputs": [
        {
          "internalType": "address",
          "name": "newOwner",
          "type": "address"
        }
      ],
      "name": "transferOwnership",
      "outputs": [],
      "payable": false,
      "stateMutability": "nonpayable",
      "type": "function"
    },
    {
      "constant": true,
      "inputs": [
        {
          "internalType": "uint256",
          "name": "",
          "type": "uint256"
        }
      ],
      "name": "zombieToOwner",
      "outputs": [
        {
          "internalType": "address",
          "name": "",
          "type": "address"
        }
      ],
      "payable": false,
      "stateMutability": "view",
      "type": "function"
    },
    {
      "constant": true,
      "inputs": [
        {
          "internalType": "uint256",
          "name": "",
          "type": "uint256"
        }
      ],
      "name": "zombies",
      "outputs": [
        {
          "internalType": "string",
          "name": "name",
          "type": "string"
        },
        {
          "internalType": "uint256",
          "name": "dna",
          "type": "uint256"
        },
        {
          "internalType": "uint32",
          "name": "level",
          "type": "uint32"
        },
        {
          "internalType": "uint32",
          "name": "readyTime",
          "type": "uint32"
        },
        {
          "internalType": "uint16",
          "name": "winCount",
          "type": "uint16"
        },
        {
          "internalType": "uint16",
          "name": "lossCount",
          "type": "uint16"
        }
      ],
      "payable": false,
      "stateMutability": "view",
      "type": "function"
    },
    {
      "constant": false,
      "inputs": [],
      "name": "withdraw",
      "outputs": [],
      "payable": false,
      "stateMutability": "nonpayable",
      "type": "function"
    },
    {
      "constant": false,
      "inputs": [
        {
          "internalType": "uint256",
          "name": "_fee",
          "type": "uint256"
        }
      ],
      "name": "setLevelUpFee",
      "outputs": [],
      "payable": false,
      "stateMutability": "nonpayable",
      "type": "function"
    },
    {
      "constant": false,
      "inputs": [
        {
          "internalType": "uint256",
          "name": "_zombieId",
          "type": "uint256"
        }
      ],
      "name": "levelUp",
      "outputs": [],
      "payable": true,
      "stateMutability": "payable",
      "type": "function"
    },
    {
      "constant": false,
      "inputs": [
        {
          "internalType": "uint256",
          "name": "_zombieId",
          "type": "uint256"
        },
        {
          "internalType": "string",
          "name": "_newName",
          "type": "string"
        }
      ],
      "name": "changeName",
      "outputs": [],
      "payable": false,
      "stateMutability": "nonpayable",
      "type": "function"
    },
    {
      "constant": false,
      "inputs": [
        {
          "internalType": "uint256",
          "name": "_zombieId",
          "type": "uint256"
        },
        {
          "internalType": "uint256",
          "name": "_newDna",
          "type": "uint256"
        }
      ],
      "name": "changeDna",
      "outputs": [],
      "payable": false,
      "stateMutability": "nonpayable",
      "type": "function"
    },
    {
      "constant": true,
      "inputs": [
        {
          "internalType": "address",
          "name": "_owner",
          "type": "address"
        }
      ],
      "name": "getZombiesByOwner",
      "outputs": [
        {
          "internalType": "uint256[]",
          "name": "",
          "type": "uint256[]"
        }
      ],
      "payable": false,
      "stateMutability": "view",
      "type": "function"
    }
  ],
  "bytecode": "0x60806040526010600155600154600a0a6002556201518060035566038d7ea4c68000600855336000806101000a81548173ffffffffffffffffffffffffffffffffffffffff021916908373ffffffffffffffffffffffffffffffffffffffff1602179055506000809054906101000a900473ffffffffffffffffffffffffffffffffffffffff1673ffffffffffffffffffffffffffffffffffffffff16600073ffffffffffffffffffffffffffffffffffffffff167f8be0079c531659141344cd1fd0a4f28419497f9722a3daafe3b4186f6b6457e060405160405180910390a361192f806100ef6000396000f3fe6080604052600436106100e85760003560e01c80635faf28801161008a5780638f32d59b116100595780638f32d59b14610563578063c39cbef114610592578063ccf670f814610622578063f2fde38b1461065d576100e8565b80635faf2880146103e8578063715018a61461042d5780637bff0a01146104445780638da5cb5b1461050c576100e8565b80633ccfd60b116100c65780633ccfd60b1461025f5780634412e10414610276578063528b7b8f1461031c5780635f4623f114610397576100e8565b80630ce90ec2146100ed57806317a7f4cc1461011b5780632052465e14610160575b600080fd5b6101196004803603602081101561010357600080fd5b81019080803590602001909291905050506106ae565b005b34801561012757600080fd5b5061015e6004803603604081101561013e57600080fd5b8101908080359060200190929190803590602001909291905050506107b6565b005b34801561016c57600080fd5b506101996004803603602081101561018357600080fd5b8101908080359060200190929190505050610941565b60405180806020018781526020018663ffffffff1663ffffffff1681526020018563ffffffff1663ffffffff1681526020018461ffff1661ffff1681526020018361ffff1661ffff168152602001828103825288818151815260200191508051906020019080838360005b8381101561021f578082015181840152602081019050610204565b50505050905090810190601f16801561024c5780820380516001836020036101000a031916815260200191505b5097505050505050505060405180910390f35b34801561026b57600080fd5b50610274610a5e565b005b34801561028257600080fd5b506102c56004803603602081101561029957600080fd5b81019080803573ffffffffffffffffffffffffffffffffffffffff169060200190929190505050610ac5565b6040518080602001828103825283818151815260200191508051906020019060200280838360005b838110156103085780820151818401526020810190506102ed565b505050509050019250505060405180910390f35b34801561032857600080fd5b506103556004803603602081101561033f57600080fd5b8101908080359060200190929190505050610bf2565b604051808273ffffffffffffffffffffffffffffffffffffffff1673ffffffffffffffffffffffffffffffffffffffff16815260200191505060405180910390f35b3480156103a357600080fd5b506103e6600480360360208110156103ba57600080fd5b81019080803573ffffffffffffffffffffffffffffffffffffffff169060200190929190505050610c25565b005b3480156103f457600080fd5b5061042b6004803603604081101561040b57600080fd5b810190808035906020019092919080359060200190929190505050610c7a565b005b34801561043957600080fd5b50610442610d54565b005b34801561045057600080fd5b5061050a6004803603602081101561046757600080fd5b810190808035906020019064010000000081111561048457600080fd5b82018360208201111561049657600080fd5b803590602001918460018302840111640100000000831117156104b857600080fd5b91908080601f016020809104026020016040519081016040528093929190818152602001838380828437600081840152601f19601f820116905080830192505050505050509192919290505050610e24565b005b34801561051857600080fd5b50610521610f03565b604051808273ffffffffffffffffffffffffffffffffffffffff1673ffffffffffffffffffffffffffffffffffffffff16815260200191505060405180910390f35b34801561056f57600080fd5b50610578610f2c565b604051808215151515815260200191505060405180910390f35b34801561059e57600080fd5b50610620600480360360408110156105b557600080fd5b8101908080359060200190929190803590602001906401000000008111156105dc57600080fd5b8201836020820111156105ee57600080fd5b8035906020019184600183028401116401000000008311171561061057600080fd5b9091929391929390505050610f83565b005b34801561062e57600080fd5b5061065b6004803603602081101561064557600080fd5b8101908080359060200190929190505050611069565b005b34801561066957600080fd5b506106ac6004803603602081101561068057600080fd5b81019080803573ffffffffffffffffffffffffffffffffffffffff169060200190929190505050611084565b005b60085434146106bc57600080fd5b6107046001600483815481106106ce57fe5b906000526020600020906003020160020160009054906101000a900463ffffffff1663ffffffff166110a190919063ffffffff16565b6004828154811061071157fe5b906000526020600020906003020160020160006101000a81548163ffffffff021916908363ffffffff1602179055507f16d15f32051bc9628b984a7b677e93ad6c5c3caffcbca5c97855e392d11f92cd816004838154811061076f57fe5b906000526020600020906003020160020160009054906101000a900463ffffffff16604051808381526020018263ffffffff1681526020019250505060405180910390a150565b6000600760009054906101000a900473ffffffffffffffffffffffffffffffffffffffff1673ffffffffffffffffffffffffffffffffffffffff1663e98b7f4d836040518263ffffffff1660e01b8152600401808281526020019150506101406040518083038186803b15801561082c57600080fd5b505afa158015610840573d6000803e3d6000fd5b505050506040513d61014081101561085757600080fd5b81019080805190602001909291908051906020019092919080519060200190929190805190602001909291908051906020019092919080519060200190929190805190602001909291908051906020019092919080519060200190929190805190602001909291905050509091929394959697985090919293949596975090919293949596509091929394955090919293945090919293509091925090915090508091505061093c83826040518060400160405280600581526020017f6b697474790000000000000000000000000000000000000000000000000000008152506110c9565b505050565b6004818154811061094e57fe5b9060005260206000209060030201600091509050806000018054600181600116156101000203166002900480601f0160208091040260200160405190810160405280929190818152602001828054600181600116156101000203166002900480156109fa5780601f106109cf576101008083540402835291602001916109fa565b820191906000526020600020905b8154815290600101906020018083116109dd57829003601f168201915b5050505050908060010154908060020160009054906101000a900463ffffffff16908060020160049054906101000a900463ffffffff16908060020160089054906101000a900461ffff169080600201600a9054906101000a900461ffff16905086565b610a66610f2c565b610a6f57600080fd5b6000610a79610f03565b90508073ffffffffffffffffffffffffffffffffffffffff166108fc479081150290604051600060405180830381858888f19350505050158015610ac1573d6000803e3d6000fd5b5050565b606080600660008473ffffffffffffffffffffffffffffffffffffffff1673ffffffffffffffffffffffffffffffffffffffff16815260200190815260200160002054604051908082528060200260200182016040528015610b365781602001602082028038833980820191505090505b509050600080905060008090505b600480549050811015610be7578473ffffffffffffffffffffffffffffffffffffffff166005600083815260200190815260200160002060009054906101000a900473ffffffffffffffffffffffffffffffffffffffff1673ffffffffffffffffffffffffffffffffffffffff161415610bda5780838381518110610bc557fe5b60200260200101818152505081806001019250505b8080600101915050610b44565b508192505050919050565b60056020528060005260406000206000915054906101000a900473ffffffffffffffffffffffffffffffffffffffff1681565b610c2d610f2c565b610c3657600080fd5b80600760006101000a81548173ffffffffffffffffffffffffffffffffffffffff021916908373ffffffffffffffffffffffffffffffffffffffff16021790555050565b6014828160048281548110610c8b57fe5b906000526020600020906003020160020160009054906101000a900463ffffffff1663ffffffff161015610cbe57600080fd5b836005600082815260200190815260200160002060009054906101000a900473ffffffffffffffffffffffffffffffffffffffff1673ffffffffffffffffffffffffffffffffffffffff163373ffffffffffffffffffffffffffffffffffffffff1614610d2a57600080fd5b8360048681548110610d3857fe5b9060005260206000209060030201600101819055505050505050565b610d5c610f2c565b610d6557600080fd5b600073ffffffffffffffffffffffffffffffffffffffff166000809054906101000a900473ffffffffffffffffffffffffffffffffffffffff1673ffffffffffffffffffffffffffffffffffffffff167f8be0079c531659141344cd1fd0a4f28419497f9722a3daafe3b4186f6b6457e060405160405180910390a360008060006101000a81548173ffffffffffffffffffffffffffffffffffffffff021916908373ffffffffffffffffffffffffffffffffffffffff160217905550565b6000600660003373ffffffffffffffffffffffffffffffffffffffff1673ffffffffffffffffffffffffffffffffffffffff1681526020019081526020016000205414610ed9576040517f08c379a000000000000000000000000000000000000000000000000000000000815260040180806020018281038252601b8152602001807f73656e64657220616c7265616479206861732061207a6f6d626965000000000081525060200191505060405180910390fd5b6000610ee482611314565b905060648181610ef057fe5b0681039050610eff82826113a2565b5050565b60008060009054906101000a900473ffffffffffffffffffffffffffffffffffffffff16905090565b60008060009054906101000a900473ffffffffffffffffffffffffffffffffffffffff1673ffffffffffffffffffffffffffffffffffffffff163373ffffffffffffffffffffffffffffffffffffffff1614905090565b6002838160048281548110610f9457fe5b906000526020600020906003020160020160009054906101000a900463ffffffff1663ffffffff161015610fc757600080fd5b846005600082815260200190815260200160002060009054906101000a900473ffffffffffffffffffffffffffffffffffffffff1673ffffffffffffffffffffffffffffffffffffffff163373ffffffffffffffffffffffffffffffffffffffff161461103357600080fd5b84846004888154811061104257fe5b906000526020600020906003020160000191906110609291906117d5565b50505050505050565b611071610f2c565b61107a57600080fd5b8060088190555050565b61108c610f2c565b61109557600080fd5b61109e81611670565b50565b60008082840190508363ffffffff168163ffffffff1610156110bf57fe5b8091505092915050565b826005600082815260200190815260200160002060009054906101000a900473ffffffffffffffffffffffffffffffffffffffff1673ffffffffffffffffffffffffffffffffffffffff163373ffffffffffffffffffffffffffffffffffffffff161461113557600080fd5b60006004858154811061114457fe5b9060005260206000209060030201905061115d81611768565b6111cf576040517f08c379a000000000000000000000000000000000000000000000000000000000815260040180806020018281038252601b8152602001807f5a6f6d626965206973206e6f7420726561647920746f2066656564000000000081525060200191505060405180910390fd5b60025484816111da57fe5b0693506000600285836001015401816111ef57fe5b04905060405160200180807f6b69747479000000000000000000000000000000000000000000000000000000815250600501905060405160208183030381529060405280519060200120846040516020018082805190602001908083835b60208310611270578051825260208201915060208101905060208303925061124d565b6001836020036101000a0380198251168184511680821785525050505050509050019150506040516020818303038152906040528051906020012014156112c4576063606482816112bd57fe5b0682030190505b6113036040518060400160405280600681526020017f4e6f4e616d650000000000000000000000000000000000000000000000000000815250826113a2565b61130c8261178f565b505050505050565b600080826040516020018082805190602001908083835b6020831061134e578051825260208201915060208101905060208303925061132b565b6001836020036101000a0380198251168184511680821785525050505050509050019150506040516020818303038152906040528051906020012060001c9050600254818161139957fe5b06915050919050565b6000600160046040518060c00160405280868152602001858152602001600163ffffffff1681526020014263ffffffff168152602001600061ffff168152602001600061ffff16815250908060018154018082558091505090600182039060005260206000209060030201600090919290919091506000820151816000019080519060200190611433929190611855565b506020820151816001015560408201518160020160006101000a81548163ffffffff021916908363ffffffff16021790555060608201518160020160046101000a81548163ffffffff021916908363ffffffff16021790555060808201518160020160086101000a81548161ffff021916908361ffff16021790555060a082015181600201600a6101000a81548161ffff021916908361ffff1602179055505050039050336005600083815260200190815260200160002060006101000a81548173ffffffffffffffffffffffffffffffffffffffff021916908373ffffffffffffffffffffffffffffffffffffffff16021790555061157c6001600660003373ffffffffffffffffffffffffffffffffffffffff1673ffffffffffffffffffffffffffffffffffffffff168152602001908152602001600020546117b990919063ffffffff16565b600660003373ffffffffffffffffffffffffffffffffffffffff1673ffffffffffffffffffffffffffffffffffffffff168152602001908152602001600020819055507f88f026aacbbecc90c18411df4b1185fd8d9be2470f1962f192bf84a27d0704b78184846040518084815260200180602001838152602001828103825284818151815260200191508051906020019080838360005b8381101561162f578082015181840152602081019050611614565b50505050905090810190601f16801561165c5780820380516001836020036101000a031916815260200191505b5094505050505060405180910390a1505050565b600073ffffffffffffffffffffffffffffffffffffffff168173ffffffffffffffffffffffffffffffffffffffff1614156116aa57600080fd5b8073ffffffffffffffffffffffffffffffffffffffff166000809054906101000a900473ffffffffffffffffffffffffffffffffffffffff1673ffffffffffffffffffffffffffffffffffffffff167f8be0079c531659141344cd1fd0a4f28419497f9722a3daafe3b4186f6b6457e060405160405180910390a3806000806101000a81548173ffffffffffffffffffffffffffffffffffffffff021916908373ffffffffffffffffffffffffffffffffffffffff16021790555050565b6000428260020160049054906101000a900463ffffffff1663ffffffff1611159050919050565b60035442018160020160046101000a81548163ffffffff021916908363ffffffff16021790555050565b6000808284019050838110156117cb57fe5b8091505092915050565b828054600181600116156101000203166002900490600052602060002090601f016020900481019282601f1061181657803560ff1916838001178555611844565b82800160010185558215611844579182015b82811115611843578235825591602001919060010190611828565b5b50905061185191906118d5565b5090565b828054600181600116156101000203166002900490600052602060002090601f016020900481019282601f1061189657805160ff19168380011785556118c4565b828001600101855582156118c4579182015b828111156118c35782518255916020019190600101906118a8565b5b5090506118d191906118d5565b5090565b6118f791905b808211156118f35760008160009055506001016118db565b5090565b9056fea265627a7a723158202e9277a92230ac235afc9430c791607a1fc9f2f78c36fed634bc9f698bd6834664736f6c63430005100032",
  "source": "pragma solidity >=0.5.0;\n\nimport \"./ZombieFeeding.sol\";\n\ncontract ZombieHelper is ZombieFeeding {\n\n  uint levelUpFee = 0.001 ether;\n  event NewLevel(uint zombieId, uint level);\n\n  modifier aboveLevel(uint _level, uint _zombieId) {\n    require(zombies[_zombieId].level >= _level);\n    _;\n  }\n\n  function withdraw() external onlyOwner {\n    address payable _owner = address(uint160((owner())));\n    _owner.transfer(address(this).balance);\n  }\n\n  function setLevelUpFee(uint _fee) external onlyOwner {\n    levelUpFee = _fee;\n  }\n\n  function levelUp(uint _zombieId) external payable {\n    require(msg.value == levelUpFee);\n    zombies[_zombieId].level = zombies[_zombieId].level.add(1);\n    emit NewLevel(_zombieId, zombies[_zombieId].level);\n  }\n\n  function changeName(uint _zombieId, string calldata _newName) external aboveLevel(2, _zombieId) onlyOwnerOf(_zombieId) {\n    zombies[_zombieId].name = _newName;\n  }\n\n  function changeDna(uint _zombieId, uint _newDna) external aboveLevel(20, _zombieId) onlyOwnerOf(_zombieId) {\n    zombies[_zombieId].dna = _newDna;\n  }\n\n  function getZombiesByOwner(address _owner) external view returns(uint[] memory) {\n    uint[] memory result = new uint[](ownerZombieCount[_owner]);\n    uint counter = 0;\n    for (uint i = 0; i < zombies.length; i++) {\n      if (zombieToOwner[i] == _owner) {\n        result[counter] = i;\n        counter++;\n      }\n    }\n    return result;\n  }\n\n}\n",
  "sourcePath": "/home/takunda/Desktop/Zombies/contracts/ZombieHelper.sol",
  "compiler": {
    "name": "solc",
    "version": "0.5.16+commit.9c3226ce.Emscripten.clang"
  },
  "schemaVersion": "3.0.23",
  "updatedAt": "2020-02-27T07:20:25.280Z",
  "devdoc": {
    "methods": {
      "isOwner()": {
        "return": "true if `msg.sender` is the owner of the contract."
      },
      "owner()": {
        "return": "the address of the owner."
      },
      "renounceOwnership()": {
        "details": "Allows the current owner to relinquish control of the contract."
      },
      "transferOwnership(address)": {
        "details": "Allows the current owner to transfer control of the contract to a newOwner.",
        "params": {
          "newOwner": "The address to transfer ownership to."
        }
      }
    }
  },
  "userdoc": {
    "methods": {
      "renounceOwnership()": {
        "notice": "Renouncing to ownership will leave the contract without an owner. It will not be possible to call the functions with the `onlyOwner` modifier anymore."
      }
    }
  }
}